S0170000456C6563747269635F4865617465722E737265632A
S11300000C942A000C949A050C9447000C94470015
S11300100C9447000C94EF060C9447000C94470092
S11300200C9447000C9447000C9447000C943B0636
S11300300C9447000C9447000C9447000C94470020
S11300400C9447000C9447000C9447000C94470010
S11300500C94470011241FBECFE5D8E0DEBFCDBF0E
S113006010E0A0E6B0E0ECE7FEE002C005900D92DF
S1130070A23AB107D9F720E0A2EAB0E001C01D928C
S1130080AC3BB207E1F70E94DD020C943C070C94F0
S113009000008091A5008F5F8093A50080E00E94FE
S11300A059028093AE009091AE008091A4009817FD
S11300B021F08091AF00882321F08091A700813046
S11300C0E1F48091AE002DEC829F612D11246695A0
S11300D066956695660F962F990F990F690F861B83
S11300E0682F8091AE00829F812D1124869586957C
S11300F086950E9499021092A7008091AE00809389
S1130100A4008091AE002091A2003091A300280F9A
S1130110311D3093A3002093A2008091A5008A3062
S113012091F4ADECBCEC0E942D07969587959695BD
S11301308795969587958093AD001092A5001092AF
S1130140A3001092A20008958091A900813021F4A7
S113015087E10E94530208958091A800813051F5EF
S11301608091AB008F5F8093AB0080916000813001
S1130170C9F42091AC008DEC289F812D1124682FA7
S1130180669566956695660F962F990F990F690F78
S1130190261B622F8695869586950E949902109259
S11301A060000895811106C060E00E94990281E018
S11301B08093600008951092AF008CE38093AC00AC
S11301C00E94AA040E941A020E943E020E94900207
S11301D00E9477020E9456020E9436020E946F0219
S11301E00E94C10589E490E00E94740684EA90E0CC
S11301F00E94280741E060E080E00E94190641E087
S113020060E080E00E94CD0680E090E00E945C0502
S11302108F3F31F080E090E00E945C058093AC0059
S11302200895CF938091AF00882321F0813009F4A1
S113023060C0BFC02091AC0030E08091AD0090E080
S1130240A901481B590B4530510591F481E00E94E6
S11302502A0280E00E94630280916100813069F586
S11302600E9479061092610081E08093A90025C064
S1130270821B930B059789F480E00E942A0281E097
S11302800E9463020E94E5061092A90081E0809317
S1130290610087E10E944B0210C00E94E5061092A3
S11302A0A90081E08093610080E00E942A0280E03E
S11302B00E94630287E10E944F0288E00E942702A5
S11302C0813031F08EE10E942702813009F071C043
S11302D00E94E5061092A900C1E0C093610087E185
S11302E00E944F02C093AF00C093AA00C093A6001F
S11302F060C08091AA00813039F40E94790681E0BF
S11303008093A8001092AA008091A600813061F425
S113031088E00E9427028130D9F38EE10E942702EF
S11303208130B1F31092A60088E00E942702813048
S113033089F46091AC006B3468F46B5F6093AC003B
S113034080E090E00E94500581E08093A600109226
S1130350AB002FC08EE10E942702813089F46091A6
S1130360AC00643268F065506093AC0080E090E0CB
S11303700E94500581E08093A6001092AB0019C042
S113038088E00E942702811114C08EE10E94270296
S113039081110FC08091AB00853059F40E94E506AD
S11303A01092AF001092A8001092AB0081E08093ED
S11303B0A700CF9108950E9431060E94E50681E0CE
S11303C08093AA008093610008958091B0008130E9
S11303D039F48093B1001092B0000E94C5050895CD
S11303E081110BC01092B10081E08093B00060E0F5
S11303F080E00E9499020E94DB0108951092B100EE
S113040085EE91E00E94950562E080E00E94760509
S113041080E00E94650508958091B100882319F059
S1130420813029F0089587E10E944F0208950E94C7
S11304301101089560E088E00E94280460E08EE1E4
S11304400E94280460E08AE10E94280408950E9422
S11304508D030895882331F0813039F482E00E94BD
S11304608802089582E00E948C02089561E082E08F
S11304700E94280482E00E942A02089561E082E139
S11304800E94280461E087E10E94280461E08BE176
S11304900E942804089561E00E940B03089560E01F
S11304A00E940B0308950E94C50308950E94E4026C
S11304B008950E94F70299230CF403969595879565
S11304C0959587950895882331F0813039F483E137
S11304D00E948802089583E10E948C02089561E0DD
S11304E083E10E94280482E00E946302089561E08F
S11304F082E00E94280461E083E10E94280460E015
S113050082E00E940B0360E083E10E940B030895E4
S113051061E00E940B03089560E00E940B030895BC
S113052061E08AE00E94280461E089E00E942804D6
S113053008951F93CF93DF93182FD62FC0E037C0B1
S113054080E00E94060490E1199F900111248F70AD
S1130550682F622B80E00E94180460E08AE00E9409
S11305600B038FE891E00197F1F700C0000061E010
S11305708AE00E940B0381E00E94060490E1D99F67
S1130580900111248F70682F622B81E00E9418045F
S113059060E089E00E940B038FE891E00197F1F796
S11305A000C0000061E089E00E940B03CF5FC83CFB
S11305B038F2DF91CF911F9108950E94DB000E94D1
S11305C0FE010E940C02FDCF87B1806887B987B114
S11305D0806487B986B1816086B986B1826086B944
S11305E086B1846086B986B1806886B9089597B16A
S11305F0907E8F71892B87B986B1806486B9349BCC
S1130600FECF86B1806186B924B185B190E0982F80
S11306108827822B0895982F96959695969587709E
S1130620913021F130F09230F1F1933009F458C057
S11306300895613069F44BB321E030E0B90102C0A0
S1130640660F771F8A95E2F7CB01842B8BBB089545
S11306504BB321E030E0B90102C0660F771F8A95E1
S1130660E2F7CB01809584238BBB0895613069F454
S113067048B321E030E0B90102C0660F771F8A95C4
S1130680E2F7CB01842B88BB089548B321E030E026
S1130690B90102C0660F771F8A95E2F7CB018095F6
S11306A0842388BB0895613069F445B321E030E0C8
S11306B0B90102C0660F771F8A95E2F7CB01842B3C
S11306C085BB089545B321E030E0B90102C0660F4F
S11306D0771F8A95E2F7CB018095842385BB089523
S11306E0613069F442B321E030E0B90102C0660F21
S11306F0771F8A95E2F7CB01842B82BB089542B31E
S113070021E030E0B90102C0660F771F8A95E2F755
S1130710CB018095842382BB0895982F9695969556
S11307209695482F4770913081F028F09230B9F0B7
S11307309330F9F028C099B3892F90E002C09595C1
S113074087954A95E2F78170089526B330E0C90190
S113075002C0959587954A95E2F78170089523B371
S113076030E0C90102C0959587954A95E2F78170FA
S1130770089520B330E0C90102C0959587954A9544
S1130780E2F78170089580E00895982F96959695E4
S113079096958770913099F028F09230E9F0933073
S11307A041F108954BB321E030E0B90102C0660F76
S11307B0771F8A95E2F7CB0184278BBB089548B352
S11307C021E030E0B90102C0660F771F8A95E2F795
S11307D0CB01842788BB089545B321E030E0B901FB
S11307E002C0660F771F8A95E2F7CB01842785BB89
S11307F0089542B321E030E0B90102C0660F771FCB
S11308008A95E2F7CB01842782BB0895813041F0B9
S113081028F0823039F0833039F008C08BB3089562
S113082088B3089585B3089582B3089580E0089548
S1130830813041F028F0823039F0833039F0089566
S11308406BBB089568BB089565BB089562BB0895AA
S1130850982F9695969596958770913021F130F062
S11308609230F1F1933009F458C00895613069F47D
S11308704AB321E030E0B90102C0660F771F8A95C0
S1130880E2F7CB01842B8ABB08954AB321E030E020
S1130890B90102C0660F771F8A95E2F7CB018095F4
S11308A084238ABB0895613069F447B321E030E0C2
S11308B0B90102C0660F771F8A95E2F7CB01842B3A
S11308C087BB089547B321E030E0B90102C0660F49
S11308D0771F8A95E2F7CB018095842387BB08951F
S11308E0613069F444B321E030E0B90102C0660F1D
S11308F0771F8A95E2F7CB01842B84BB089544B318
S113090021E030E0B90102C0660F771F8A95E2F753
S1130910CB018095842384BB0895613069F441B38D
S113092021E030E0B90102C0660F771F8A95E2F733
S1130930CB01842B81BB089541B321E030E0B901A0
S113094002C0660F771F8A95E2F7CB018095842356
S113095081BB089580E0A0C0982F969596959695B2
S1130960282F2770913061F138F0923009F44CC08F
S1130970933009F46DC08FC0E82FF0E0EE0FFF1F35
S1130980EE59FF4F9081913069F49AB341E050E001
S1130990BA0102C0660F771F2A95E2F79B01292B43
S11309A02ABB79C09AB341E050E0BA0102C0660F95
S11309B0771F2A95E2F79B01209529232ABB6BC058
S11309C0E82FF0E0EE0FFF1FEE59FF4F90819130BA
S11309D069F497B341E050E0BA0102C0660F771F93
S11309E02A95E2F79B01292B27BB55C097B341E019
S11309F050E0BA0102C0660F771F2A95E2F79B0107
S1130A002095292327BB47C0E82FF0E0EE0FFF1FF6
S1130A10EE59FF4F9081913069F494B341E050E076
S1130A20BA0102C0660F771F2A95E2F79B01292BB2
S1130A3024BB31C094B341E050E0BA0102C0660F58
S1130A40771F2A95E2F79B012095292324BB23C015
S1130A50E82FF0E0EE0FFF1FEE59FF4F9081913029
S1130A6069F491B341E050E0BA0102C0660F771F08
S1130A702A95E2F79B01292B21BB0DC091B341E0DC
S1130A8050E0BA0102C0660F771F2A95E2F79B0176
S1130A902095292321BB8F5F803208F45DCF089510
S1130AA0E199FECF8FBB9EBB6DBB8CB384608CBBC6
S1130AB08CB382608CBB0895E199FECF8FBB9EBB43
S1130AC08CB381608CBB8DB30895813041F018F0F4
S1130AD0823049F008958BB780648BBF08958BB73B
S1130AE080688BBF08958BB78BBF0895813041F028
S1130AF018F0823071F0089585B7682B65BF0895AA
S1130B0085B770E0660F771F660F771F682B65BF88
S1130B100895633021F484B78F7B84BF08956230D5
S1130B2019F484B7806484BF08959093B3008093CC
S1130B30B20008951F920F920FB60F9211242F93B3
S1130B403F934F935F936F937F938F939F93AF9351
S1130B50BF93EF93FF93E091B200F091B300099536
S1130B60FF91EF91BF91AF919F918F917F916F9181
S1130B705F914F913F912F910F900FBE0F901F9057
S1130B8018958FB780688FBF0895813051F483B76B
S1130B90816083BF83B78D7F83BF83B78B7F83BF20
S1130BA00895823051F483B78E7F83BF83B7826008
S1130BB083BF83B78B7F83BF0895833051F483B79A
S1130BC0816083BF83B7826083BF83B78B7F83BF1A
S1130BD00895843051F483B78E7F83BF83B78D7FAC
S1130BE083BF83B7846083BF0895853051F483B78E
S1130BF0816083BF83B78D7F83BF83B7846083BFE6
S1130C000895863051F483B78E7F83BF83B78260A3
S1130C1083BF83B7846083BF0895863049F483B764
S1130C20816083BF83B7826083BF83B7846083BFDF
S1130C300895CF93C42F93B79F7B93BF93B7977FA8
S1130C4093BF62BF0E94C505C13021F489B781609A
S1130C5089BF05C0C11103C089B78E7F89BFCF91F9
S1130C60089583B78E7F83BF83B78D7F83BF83B798
S1130C708B7F83BF08951F920F920FB60F9211249A
S1130C802F933F934F935F936F937F938F939F9390
S1130C90AF93BF93EF93FF938091B6009091B70009
S1130CA001969093B7008093B600E091BA00F0915A
S1130CB0BB00309741F08A36984129F40995109287
S1130CC0B7001092B600FF91EF91BF91AF919F9141
S1130CD08F917F916F915F914F913F912F910F90E1
S1130CE00FBE0F901F9018959093BB008093BA008D
S1130CF00895813051F485B5816085BD85B58D7FBA
S1130D0085BD85B58B7F85BD0895823051F485B549
S1130D108E7F85BD85B5826085BD85B58B7F85BD9C
S1130D200895833051F485B5816085BD85B58260B1
S1130D3085BD85B58B7F85BD0895843051F485B517
S1130D408E7F85BD85B58D7F85BD85B5846085BD68
S1130D500895853051F485B5816085BD85B58D7F55
S1130D6085BD85B5846085BD0895863051F485B50B
S1130D708E7F85BD85B5826085BD85B5846085BD62
S1130D800895863049F485B5816085BD85B5826056
S1130D9085BD85B5846085BD0895CF93C42F95B571
S1130DA0977F95BD95B59F7B95BD64BD0E947906DF
S1130DB0C13021F489B7806489BF05C0C11103C063
S1130DC089B78F7B89BFCF91089585B58E7F85BD07
S1130DD085B58D7F85BD85B58B7F85BD08951F92B3
S1130DE00F920FB60F9211242F933F934F935F935B
S1130DF06F937F938F939F93AF93BF93EF93FF93DF
S1130E008091B4009091B50001969093B5008093C1
S1130E10B400E091B800F091B900309741F0843209
S1130E20944F29F409951092B5001092B400FF91E3
S1130E30EF91BF91AF919F918F917F916F915F914E
S1130E404F913F912F910F900FBE0F901F901895C7
S1130E509093B9008093B8000895A29FB001B39F06
S1130E60C001A39F700D811D1124911DB29F700DAF
S10F0E70811D1124911D0895F894FFCFFA
S1130E7C0101010101010101010101010101010152
S1130E8C0101000101010101010101010101010143
S1130E9C0101010100000101010101010101010134
S1130EAC0101010101010001010100000000000029
S1050EBC000030
S9030000FC
